{
  "contractName": "Election",
  "abi": [
    {
      "inputs": [],
      "stateMutability": "nonpayable",
      "type": "constructor"
    },
    {
      "anonymous": false,
      "inputs": [
        {
          "indexed": true,
          "internalType": "uint256",
          "name": "_candidateId",
          "type": "uint256"
        }
      ],
      "name": "votedEvent",
      "type": "event"
    },
    {
      "inputs": [
        {
          "internalType": "uint256",
          "name": "",
          "type": "uint256"
        }
      ],
      "name": "candidates",
      "outputs": [
        {
          "internalType": "uint256",
          "name": "id",
          "type": "uint256"
        },
        {
          "internalType": "string",
          "name": "name",
          "type": "string"
        },
        {
          "internalType": "uint256",
          "name": "voteCount",
          "type": "uint256"
        },
        {
          "internalType": "uint256",
          "name": "partyId",
          "type": "uint256"
        }
      ],
      "stateMutability": "view",
      "type": "function",
      "constant": true
    },
    {
      "inputs": [],
      "name": "candidatesCount",
      "outputs": [
        {
          "internalType": "uint256",
          "name": "",
          "type": "uint256"
        }
      ],
      "stateMutability": "view",
      "type": "function",
      "constant": true
    },
    {
      "inputs": [
        {
          "internalType": "uint256",
          "name": "",
          "type": "uint256"
        }
      ],
      "name": "parties",
      "outputs": [
        {
          "internalType": "uint256",
          "name": "id",
          "type": "uint256"
        },
        {
          "internalType": "string",
          "name": "name",
          "type": "string"
        },
        {
          "internalType": "uint256",
          "name": "voteCount",
          "type": "uint256"
        },
        {
          "internalType": "bool",
          "name": "exists",
          "type": "bool"
        }
      ],
      "stateMutability": "view",
      "type": "function",
      "constant": true
    },
    {
      "inputs": [],
      "name": "partiesCount",
      "outputs": [
        {
          "internalType": "uint256",
          "name": "",
          "type": "uint256"
        }
      ],
      "stateMutability": "view",
      "type": "function",
      "constant": true
    },
    {
      "inputs": [
        {
          "internalType": "address",
          "name": "",
          "type": "address"
        }
      ],
      "name": "voters",
      "outputs": [
        {
          "internalType": "bool",
          "name": "",
          "type": "bool"
        }
      ],
      "stateMutability": "view",
      "type": "function",
      "constant": true
    },
    {
      "inputs": [
        {
          "internalType": "uint256",
          "name": "_candidateId",
          "type": "uint256"
        }
      ],
      "name": "vote",
      "outputs": [],
      "stateMutability": "nonpayable",
      "type": "function"
    }
  ],
  "bytecode": "0x60806040523480156200001157600080fd5b50620000586040518060400160405280600781526020017f5061727479203100000000000000000000000000000000000000000000000000815250620001c460201b60201c565b6200009e6040518060400160405280600781526020017f5061727479203200000000000000000000000000000000000000000000000000815250620001c460201b60201c565b620000e66040518060400160405280600b81526020017f43616e646964617465203100000000000000000000000000000000000000000081525060016200027360201b60201c565b6200012e6040518060400160405280600b81526020017f43616e646964617465203200000000000000000000000000000000000000000081525060026200027360201b60201c565b620001766040518060400160405280600b81526020017f43616e646964617465203300000000000000000000000000000000000000000081525060016200027360201b60201c565b620001be6040518060400160405280600b81526020017f43616e646964617465203400000000000000000000000000000000000000000081525060026200027360201b60201c565b620004c3565b60046000815480929190620001d99062000417565b91905055506040518060800160405280600454815260200182815260200160008152602001600115158152506002600060045481526020019081526020016000206000820151816000015560208201518160010190805190602001906200024292919062000327565b506040820151816002015560608201518160030160006101000a81548160ff02191690831515021790555090505050565b6000811180156200028657506004548111155b6200029057600080fd5b60036000815480929190620002a59062000417565b91905055506040518060800160405280600354815260200183815260200160008152602001828152506001600060035481526020019081526020016000206000820151816000015560208201518160010190805190602001906200030b92919062000327565b5060408201518160020155606082015181600301559050505050565b8280546200033590620003e1565b90600052602060002090601f016020900481019282620003595760008555620003a5565b82601f106200037457805160ff1916838001178555620003a5565b82800160010185558215620003a5579182015b82811115620003a457825182559160200191906001019062000387565b5b509050620003b49190620003b8565b5090565b5b80821115620003d3576000816000905550600101620003b9565b5090565b6000819050919050565b60006002820490506001821680620003fa57607f821691505b6020821081141562000411576200041062000494565b5b50919050565b60006200042482620003d7565b91507fffffffffffffffffffffffffffffffffffffffffffffffffffffffffffffffff8214156200045a576200045962000465565b5b600182019050919050565b7f4e487b7100000000000000000000000000000000000000000000000000000000600052601160045260246000fd5b7f4e487b7100000000000000000000000000000000000000000000000000000000600052602260045260246000fd5b6107ea80620004d36000396000f3fe608060405234801561001057600080fd5b50600436106100625760003560e01c80630121b93f146100675780632d35a8a2146100835780633477ee2e146100a157806370651a18146100d4578063a3ec138d14610107578063c56a354014610137575b600080fd5b610081600480360381019061007c91906104b7565b610155565b005b61008b6102bb565b6040516100989190610552565b60405180910390f35b6100bb60048036038101906100b691906104b7565b6102c1565b6040516100cb94939291906105b9565b60405180910390f35b6100ee60048036038101906100e991906104b7565b610379565b6040516100fe949392919061056d565b60405180910390f35b610121600480360381019061011c919061048e565b61043e565b60405161012e9190610537565b60405180910390f35b61013f61045e565b60405161014c9190610552565b60405180910390f35b6000803373ffffffffffffffffffffffffffffffffffffffff1673ffffffffffffffffffffffffffffffffffffffff16815260200190815260200160002060009054906101000a900460ff16156101ab57600080fd5b6000811180156101bd57506003548111155b6101c657600080fd5b60016000803373ffffffffffffffffffffffffffffffffffffffff1673ffffffffffffffffffffffffffffffffffffffff16815260200190815260200160002060006101000a81548160ff021916908315150217905550600160008281526020019081526020016000206002016000815480929190610244906106ce565b919050555060026000600160008481526020019081526020016000206003015481526020019081526020016000206002016000815480929190610286906106ce565b9190505550807ffff3c900d938d21d0990d786e819f29b8d05c1ef587b462b939609625b684b1660405160405180910390a250565b60035481565b60016020528060005260406000206000915090508060000154908060010180546102ea9061069c565b80601f01602080910402602001604051908101604052809291908181526020018280546103169061069c565b80156103635780601f1061033857610100808354040283529160200191610363565b820191906000526020600020905b81548152906001019060200180831161034657829003601f168201915b5050505050908060020154908060030154905084565b60026020528060005260406000206000915090508060000154908060010180546103a29061069c565b80601f01602080910402602001604051908101604052809291908181526020018280546103ce9061069c565b801561041b5780601f106103f05761010080835404028352916020019161041b565b820191906000526020600020905b8154815290600101906020018083116103fe57829003601f168201915b5050505050908060020154908060030160009054906101000a900460ff16905084565b60006020528060005260406000206000915054906101000a900460ff1681565b60045481565b60008135905061047381610786565b92915050565b6000813590506104888161079d565b92915050565b6000602082840312156104a057600080fd5b60006104ae84828501610464565b91505092915050565b6000602082840312156104c957600080fd5b60006104d784828501610479565b91505092915050565b6104e981610633565b82525050565b60006104fa82610605565b6105048185610610565b9350610514818560208601610669565b61051d81610775565b840191505092915050565b6105318161065f565b82525050565b600060208201905061054c60008301846104e0565b92915050565b60006020820190506105676000830184610528565b92915050565b60006080820190506105826000830187610528565b818103602083015261059481866104ef565b90506105a36040830185610528565b6105b060608301846104e0565b95945050505050565b60006080820190506105ce6000830187610528565b81810360208301526105e081866104ef565b90506105ef6040830185610528565b6105fc6060830184610528565b95945050505050565b600081519050919050565b600082825260208201905092915050565b600061062c8261063f565b9050919050565b60008115159050919050565b600073ffffffffffffffffffffffffffffffffffffffff82169050919050565b6000819050919050565b60005b8381101561068757808201518184015260208101905061066c565b83811115610696576000848401525b50505050565b600060028204905060018216806106b457607f821691505b602082108114156106c8576106c7610746565b5b50919050565b60006106d98261065f565b91507fffffffffffffffffffffffffffffffffffffffffffffffffffffffffffffffff82141561070c5761070b610717565b5b600182019050919050565b7f4e487b7100000000000000000000000000000000000000000000000000000000600052601160045260246000fd5b7f4e487b7100000000000000000000000000000000000000000000000000000000600052602260045260246000fd5b6000601f19601f8301169050919050565b61078f81610621565b811461079a57600080fd5b50565b6107a68161065f565b81146107b157600080fd5b5056fea26469706673582212208f5fcf7aeea5e19fb9044b4d7b2b64e11eec1308124b20cf898c27eac2c13bd364736f6c63430008010033",
  "immutableReferences": {},
  "source": "// SPDX-License-Identifier: MIT\npragma solidity >=0.7.0 <0.9.0;\n\ncontract Election {\n\n    struct Party {\n        uint id;\n        string name;\n        uint voteCount;\n        bool exists;\n    }\n\n    struct Candidate {\n        uint id;\n        string name;\n        uint voteCount;\n        uint partyId;\n    }\n\n    mapping(address => bool) public voters;\n\n    mapping(uint => Candidate) public candidates;\n    mapping(uint => Party) public parties;\n\n    uint public candidatesCount;\n    uint public partiesCount;\n\n    event votedEvent(\n        uint indexed _candidateId\n    );\n\n    constructor() {\n        addParty('Party 1'); //1\n        addParty('Party 2'); //2\n\n        addCandidate('Candidate 1', 1);\n        addCandidate('Candidate 2', 2);\n        addCandidate('Candidate 3', 1);\n        addCandidate('Candidate 4', 2);\n    }\n\n    function addCandidate(string memory _name, uint _partyId) private {\n\n        //check valid party\n        require(_partyId > 0 && _partyId <= partiesCount);\n\n        candidatesCount ++;\n        candidates[candidatesCount] = Candidate(candidatesCount, _name, 0, _partyId);\n    }\n\n    function addParty(string memory _name) private {\n        partiesCount++;\n        parties[partiesCount] = Party(partiesCount, _name, 0, true);\n    }\n\n    function vote (uint _candidateId) public {\n        //check they haven't voted before\n        require(!voters[msg.sender]);\n\n        //check valid candidate\n        require(_candidateId > 0 && _candidateId <= candidatesCount);\n\n        //record that voter has voted\n        voters[msg.sender] = true;\n        \n        //update candidate vote count\n        candidates[_candidateId].voteCount ++;\n\n        //update party vote count\n        parties[candidates[_candidateId].partyId].voteCount ++;\n\n        emit votedEvent(_candidateId);\n    }\n\n\n}",
  "sourcePath": "/Users/aldo/Dev/Sandbox/ethereum/election-app/contracts/Election.sol",
  "compiler": {
    "name": "solc",
    "version": "0.8.1+commit.df193b15.Emscripten.clang"
  },
  "schemaVersion": "3.3.4",
  "updatedAt": "2021-03-13T12:57:47.267Z",
  "networkType": "ethereum",
  "devdoc": {
    "kind": "dev",
    "methods": {},
    "version": 1
  },
  "userdoc": {
    "kind": "user",
    "methods": {},
    "version": 1
  }
}